:100000000C942A000C9434000C9434000C943400AA
:100010000C9434000C9434000C9434000C94340090
:100020000C9434000C9434000C9434000C94340080
:100030000C9434000C9434000C9434000C94340070
:100040000C9434000C9434000C9434000C94340060
:100050000C94340011241FBECFE5D8E0DEBFCDBF25
:100060000E9436000C9457000C9400008FEE8ABB5F
:100070008FEF81BB9FE0892F8295807F82BBCC9BD5
:10008000FACF892F90E00F968F709078992324F4FF
:100090000197806F9F6F0196982F2FE33DE083E0DB
:1000A000215030408040E1F700C00000E4CFF894D8
:0200B000FFCF80
:00000001FF
