:100000000C942A000C943F000C943F000C943F0089
:100010000C943F000C943F000C943F000C943F0064
:100020000C943F000C943F000C943F000C943F0054
:100030000C943F000C943F000C943F000C943F0044
:100040000C943F000C943F000C943F000C943F0034
:100050000C943F0011241FBECFE5D8E0DEBFCDBF1A
:1000600010E0A0E6B0E0EAE3F1E002C005900D92F6
:10007000A836B107D9F70E9441000C949B000C945C
:100080000000CF93DF93CDB7DEB728970FB6F89473
:10009000DEBF0FBECDBF88E0E0E6F0E0DE011196E6
:1000A00001900D928A95E1F78FEF84BB81BB60E0F0
:1000B00021E025BB862F90E0E1E0F0E0EC0FFD1F92
:1000C000E80FF91F3081309532BB01968770907828
:1000D000992324F40197886F9F6F0196682F83EF0F
:1000E00091E00197F1F700C00000220F11F725BB46
:1000F00080E090E015C0E1E0F0E0EC0FFD1FE80FBC
:10010000F91F3081732F7695432F417050E09A018B
:100110003695322F222737952795272B2083019656
:100120008830910544F389E698E10197F1F700C022
:0A013000000021E0BECFF894FFCFDD
:08013A007E7E18181818181831
:00000001FF
