S013000041767250726163746963652E73726563BD
S11300000C942A000C9434000C9434000C943400A6
S11300100C9434000C9434000C9434000C9434008C
S11300200C9434000C9434000C9434000C9434007C
S11300300C9434000C9434000C9434000C9434006C
S11300400C9434000C9434000C9434000C9434005C
S11300500C94340011241FBECFE5D8E0DEBFCDBF21
S11300600E9436000C9446000C9400008FEF8ABB6B
S113007081BB8FEF8BBB12BA2FE986E891E0215048
S113008080409040E1F700C00000F3CFF894FFCF28
S9030000FC
